:020000040800F2
:1000000058090024AD020008393D0008993900085C
:10001000313D000821050008895C0008000000004F
:10002000000000000000000000000000494200083D
:100030002905000800000000413D00085142000869
:10004000CB020008CB020008CB020008CB0200085C
:10005000CB020008CB020008CB020008CB0200084C
:10006000CB020008CB020008CB020008CB0200083C
:10007000CB020008CB020008CB020008CB0200082C
:10008000CB020008CB020008CB020008CB0200081C
:10009000CB020008CB020008CB020008CB0200080C
:1000A000CB020008CB020008CB020008CB020008FC
:1000B000CB020008CB020008CB020008CB020008EC
:1000C000CB020008CB020008CB020008CB020008DC
:1000D000CB020008CB020008795C0008CB020008C4
:1000E000CB020008CB02000800000000CB02000891
:1000F000CB020008CB020008CB020008CB020008AC
:10010000CB020008CB020008CB020008CB0200089B
:100110008145000891450008CB020008CB02000889
:10012000CB020008CB020008CB020008CB0200087B
:10013000CB020008CB020008CB020008CB0200086B
:1001400000000000000000000000000000000000AF
:10015000CB020008CB020008CB020008CB0200084B
:10016000CB020008CB020008CB020008CB0200083B
:10017000CB020008CB020008CB020008CB0200082B
:10018000CB020008CB020008CB020008A145000802
:10019000CB020008CB020008CB020008CB0200080B
:1001A000CB020008CB020008CB020008CB020008FB
:1001B000CB020008CB020008CB020008CB020008EB
:1001C000CB020008CB020008CB020008CB020008DB
:1001D000CB020008CB020008CB020008CB020008CB
:1001E000CB020008CB020008CB020008CB020008BB
:1001F000CB020008CB020008CB020008CB020008AB
:10020000CB020008CB020008CB020008CB0200089A
:10021000CB020008CB020008CB020008CB0200088A
:10022000CB020008CB020008CB020008000000004F
:10023000CB020008CB02000800000000CB0200083F
:10024000CB020008CB020008CB020008CB0200085A
:10025000CB020008CB020008CB020008CB0200084A
:10026000CB020008CB020008CB020008CB0200083A
:10027000CB020008CB020008CB02000800000000FF
:10028000CB020008CB020008CB02000800000000EF
:1002900000000000CB020008DFF80CD000F0C4F82A
:1002A00000480047D16000085809002407488047EB
:1002B0000748804707480047FEE7FEE7FEE7FEE7FE
:1002C000FEE7FEE7FEE7FEE7FEE7FEE74105000882
:1002D00041430008990200082DE9F05F054600201F
:1002E00092469B4688460646814640241BE02846A7
:1002F00041464746224600F04EF853465A46C01A39
:10030000914110D311461846224600F035F82D1AB7
:1003100067EB01084F4622460120002100F02CF82F
:1003200017EB00094E41201EA4F10104DFDC484612
:1003300031462A464346BDE8F09FD2B201E000F8BC
:10034000012B491EFBD270470022F6E710B5134679
:100350000A4604461946FFF7F0FF204610BD70B567
:10036000064605F0F5FF046805460A2200213046DE
:1003700000F021F82C6070BD202A04DB203A00FA3E
:1003800002F1002070479140C2F1200320FA03F3EC
:10039000194390407047202A04DB203A21FA02F0EA
:1003A0000021704721FA02F3D040C2F120029140AF
:1003B0000843194670472DE9F04791460F4680469D
:1003C0000446002614F8015B2DB100F045F80068E2
:1003D000405DC007F6D12B2D02D02D2D18D0641E04
:1003E0004A463946204600F03BF827B13968A14219
:1003F00001D1C7F8008071054FF002040BD54042CF
:10040000002803DD05F0A4FF0460A007BDE8F08725
:1004100046F48066E4E70028F8DA05F099FF046006
:100420006FF00040F2E700001CB509480090094851
:1004300001900546009C06E0E06840F0010394E866
:10044000070098471034AC42F6D3FFF729FF0000AD
:10045000FC6E00081C6F000800487047646E0008BE
:100460002DE9F05F82460078002715468B460AF199
:100470000104B946302801D09DB113E014F8010BF6
:100480000127782803D0582801D045B10AE00DB1E2
:10049000102D07D10027102514F8010B02E00825C4
:1004A00000E00A250026B0460EE005FB080005FB2B
:1004B00006F1012701EB10461FFA80F8B6F5803FE0
:1004C00000D3B94614F8010B294600F018F80028AB
:1004D000EBDABBF1000F05D00FB1641E00E054460B
:1004E000CBF80040B9F1000F06D005F031FF022132
:1004F0000160C81EBDE8F09F48EA0640FAE73A28C6
:1005000000D2303820F02002412A01D3A2F1370076
:10051000884201D34FF0FF30704700000000000018
:10052000FEE700000000000070470000000000002F
:10053000EFF3108072B600BFFEE70000000000007D
:1005400044F60400C5F60200816841F002018160B2
:100550000168890409D4016889045CBF01685FEA05
:10056000814102D401688904F2D57047000000007F
:100570002DE9F041044600F0E3FC1CB3054694F875
:100580003500022822D140F20F472668C4F2020744
:1005900040F26F48BE426FF00E00C4F202081DDC4C
:1005A0006F21C4F202018E422ADC3F21C4F2020113
:1005B0008E4241DC1021C4F202018E4263D0282118
:1005C0005CE000BF0120BDE8F08100BF80206065D5
:1005D0000120002184F83410BDE8F08146451BDC81
:1005E00040F23F41C4F202018E422DDC40F2104144
:1005F000C4F202018E4246D040F228413EE000BFE4
:100600009F21C4F202018E4228DC7021C4F2020153
:100610008E4238D0882131E040F29F41C4F202017D
:100620008E4223DC40F27041C4F202018E422AD095
:1006300040F2884122E000BF4021C4F202018E4214
:1006400021D058211AE000BF40F24041C4F202011B
:100650008E4218D040F2584110E000BFA021C4F2F1
:1006600002018E420FD0B82108E000BF40F2B8412D
:10067000C4F202018E4206D040F2A041C4F202014F
:100680008E42314607D13146306820F01E0041F8D5
:10069000140B6FF080000A68464500EA020008600B
:1006A0001ADC9F20C4F20200864233DC5720C4F2D9
:1006B000020086425ADC1020C4F20200864200F09A
:1006C00097802820C4F20200864200F091804020EA
:1006D000C4F202008AE000BF45F22F40C5F60200D6
:1006E00086422DDC40F2B740C4F2020086424BDC69
:1006F00040F27040C4F20200864279D040F2884055
:10070000C4F20200864273D040F2A040C4F202005C
:100710006CE000BF40F22740C4F20200864243DC96
:10072000A020C4F20200864262D0B820C4F20200C7
:1007300086425DD040F21040C4F2020056E000BF95
:1007400045F26B40C5F6020086423FDC45F2304080
:10075000C5F6020086424BD045F24440C5F6020081
:10076000864245D045F258403EE000BF5820C4F2D2
:10077000020086423CD07020C4F20200864237D08C
:100780008820C4F2020031E040F2B840C4F2020016
:1007900086422DD045F20840C5F60200864227D099
:1007A00045F21C4020E000BF40F22840C4F20200A5
:1007B00086421DD040F24040C4F20200864217D06B
:1007C00040F25840C4F2020010E000BF45F26C4015
:1007D000C5F6020086420BD045F29440C5F60200F1
:1007E000864205D045F28040C5F60200864204D11B
:1007F000206E016821F480710160306820F00100F2
:10080000306000BF3068C00710D000F099FB401B7B
:100810000628F7D320206065032084F835000120E6
:10082000002184F83410BDE8F08100BF2068082161
:10083000B8424FF03F0211DC6F23C4F2020398422A
:100840001EDC3F23C4F20203984235DC1023C4F2BD
:100850000203984257D0282350E000BF40451BDCDC
:1008600040F23F43C4F2020398422DDC40F21043B1
:10087000C4F20203984246D040F228433EE000BF53
:100880009F23C4F20203984228DC7023C4F20203BF
:10089000984238D0882331E040F29F43C4F20203EB
:1008A000984223DC40F27043C4F2020398422AD0FB
:1008B00040F2884322E000BF4023C4F20203984282
:1008C00021D058231AE000BF40F24043C4F2020393
:1008D000984218D040F2584310E000BFA023C4F261
:1008E000020398420FD0B82308E000BF40F2A043B3
:1008F000C4F20203984206D040F2B843C4F20203A5
:10090000984240F0C580D4E9163707F01F074045EC
:1009100002FA07F25A5019DC9F21C4F20201884200
:1009200032DC5721C4F20201884259DC1021C4F2A2
:100930000201884200F096802821C4F20201884218
:1009400000F090804021C4F2020189E045F22F417D
:10095000C5F6020188422DDC40F2B741C4F2020123
:1009600088424BDC40F27041C4F20201884279D0E7
:1009700040F28841C4F20201884273D040F2A041A3
:10098000C4F202016CE000BF40F22741C4F2020150
:10099000884243DCA021C4F20201884262D0B8211F
:1009A000C4F2020188425DD040F21041C4F202015B
:1009B00056E000BF45F26B41C5F6020188423FDCBC
:1009C00045F23041C5F6020188424BD045F2444120
:1009D000C5F60201884245D045F258413EE000BFCD
:1009E0005821C4F2020188423CD07021C4F20201B5
:1009F000884237D08821C4F2020131E040F2B84188
:100A0000C4F2020188422DD045F20841C5F6020128
:100A1000884227D045F21C4120E000BF40F2284127
:100A2000C4F2020188421DD040F24041C4F20201EA
:100A3000884217D040F25841C4F2020110E000BFD2
:100A400045F26C41C5F6020188420BD045F2944153
:100A5000C5F60201884205D045F28041C5F6020183
:100A600088420BD1616EA26EE06E4A6030B10168BF
:100A700021F480710160D4E91C014160012084F8F7
:100A800035000020002184F83410BDE8F08100BF5B
:100A90000421012237E70000F0B190F83510022957
:100AA00018D180B540F20F420168C4F202029142AF
:100AB00014DC6F23C4F20203994225DC3F23C4F205
:100AC000020399423CDC1023C4F2020399425DD038
:100AD000282357E0802141650120704740F26F4391
:100AE000C4F2020399421BDC40F23F43C4F202030A
:100AF00099422DDC40F21043C4F20203994245D0E2
:100B000040F228433EE000BF9F23C4F20203994213
:100B100028DC7023C4F20203994237D0882331E0E5
:100B200040F29F43C4F20203994223DC40F2704337
:100B3000C4F20203994229D040F2884322E000BF68
:100B40004023C4F20203994220D058231AE000BF88
:100B500040F24043C4F20203994217D040F2584396
:100B600010E000BFA023C4F2020399420ED0B823C4
:100B700008E000BF40F2B843C4F20203994205D036
:100B800040F2A043C4F20203994275D191424FF062
:100B9000040280F8352011DC6F20C4F2020081428B
:100BA00022DC3F20C4F20200814239DC1020C4F272
:100BB0000200814259D0282054E000BF40F26F402B
:100BC000C4F2020081421BDC40F23F40C4F202004A
:100BD00081422DDC40F21040C4F20200814244D038
:100BE00040F228403EE000BF9F20C4F20200814254
:100BF00028DC7020C4F20200814236D0882031E027
:100C000040F29F40C4F20200814223DC40F2704077
:100C1000C4F20200814228D040F2884022E000BFA6
:100C20004020C4F2020081421FD058201AE000BFC9
:100C300040F24040C4F20200814216D040F25840D7
:100C400010E000BFA020C4F2020081420DD0B82005
:100C500008E000BF40F2B840C4F20200814204D074
:100C600040F2A040C4F202008142086820F0010076
:100C70000860002080BD00BF0A6822F00E020A60F2
:100C800045F25742C5F6020291420A6822F001027B
:100C90000A600FDC45F22F42C5F60202914219DCD0
:100CA00045F20842C5F60202914229D045F21C42A3
:100CB00022E000BF45F27F42C5F60202914213DCFA
:100CC00045F25842C5F60202914219D045F26C42F3
:100CD00012E000BF45F23042C5F6020291420FD049
:100CE00045F2444208E000BF45F29442C5F60202D4
:100CF000914205D045F28042C5F6020291421AD1D6
:100D0000D0E9181CD0E916E30A6822F480720A6060
:100D100003F01F01012202FA01F1CEF80410816EE6
:100D2000CCF80410C16E31B10A6822F480720A60F6
:100D3000D0E91C124A60012180F83510016D0022B3
:100D4000002980F8342094D08847002080BD00001E
:100D5000B0B5044600F0F4F840F208010546C2F2CE
:100D60000041621C097818BF0C4400BF00F0E8F88D
:100D7000401BA042FAD3B0BD2DE9F04F83B00F68FD
:100D8000002F00F0C98000F1264642F2004506F12E
:100D9000FF76C5F602050A22A8424FEAB62540F2C0
:100DA000040C08BF092200F120030093092DC5F6A9
:100DB000000C38BF4FEAB622002400264FF000088E
:100DC00001920AE008F101080F6837FA08F206F10B
:100DD000020604F1040400F09F80012202FA08FEDA
:100DE00017EA0E09EED0D1F804B003220BF0030786
:100DF000B2407D1E6FEA020A012D11D88268CD68CB
:100E000002EA0A02B5402A438260CBF30015426829
:100E100022EA0E0205FA08F52A43426004E000BF08
:100E2000032F01D103271FE0C2688D6802EA0A027E
:100E3000B540022F42EA0502C26015D16FF00302ED
:100E400004F01C0502EA580B009A0F2352F80BE03D
:100E5000AB400F692EEA0303AF403B4342F80B302F
:100E6000D1F804B00BF00307026807FA06F302EAB0
:100E70000A021BF4403F42EA03020260A2D044F29D
:100E8000F44340F2084EC5F60203C5F6000E0F25E6
:100E90001A6842F002021A601A6802F00202029214
:100EA00028F00302029B04F00C0352F80E709D40E0
:100EB000AF43019D05FA03F33B4342F80E304FF078
:100EC000B04EDEF800204B6842EA0907DD0258BF49
:100ED00022EA09079D02CEF80070DCF8002042EA01
:100EE000090758BF22EA09079D03CCF80070DCF817
:100EF000802042EA090758BF22EA0907DB03CCF841
:100F00008070DCF87C2042EA090758BF22EA090712
:100F1000CCF87C7056E700BF03B0BDE8F08F00004E
:100F2000002A08BF0904816170470000000000002A
:100F300041F20000C5F600400068000C7047000058
:100F400040F25450C2F200400068704700000000B8
:100F500040F2080040F25451C2F20040C2F2004197
:100F600000780A6810440860704700000000000024
:100F700080B5032000F0ACF801F05AF944F21841B2
:100F800046F67463C5F60201C0F600030A68C2F3B0
:100F900003229A5C096801F00F0102F01F02595CFC
:100FA000D04040F21402C2F2004201F01F0120FAC8
:100FB00001F1116040F21001C2F2004108600F20FF
:100FC00000F00AF800281CBF012080BD00F02CF8BA
:100FD000002080BD00000000B0B540F20805C2F25C
:100FE00000452978F1B1044640F21000C2F20040F9
:100FF0004FF47A72B2FBF1F10068B0FBF1F001F04E
:101000005FFC0F2C01464FF001000AD8002918BFE1
:10101000B0BD4FF0FF300022214600F029F800203B
:101020006C60B0BD0120B0BD81B044F2F440C5F6A3
:101030000200016841F002010160006800F0020056
:101040000090009801B07047002848BF704700F03A
:101050001F01012202FA01F14EF20012C0F34A1000
:10106000CEF2000242F8201070470000000000009D
:1010700070B54EF60C5C4FF0FF36CEF2000C00F16E
:10108000604505F56445DCF80030C3F3022E8EF0B0
:101090000703042B28BF0423BEF1030406FA03F35D
:1010A00021EA030100F00F0338BF0024043B0028AD
:1010B000634406FA04F048BF03F10C05A14022EA9C
:1010C000000008430001287070BD0000000000000F
:1010D0004EF60C514FF6FF03CEF200010A681A409B
:1010E00060F30A2242F0806040F0FD7008607047B3
:1010F000B0B544F60C05C5F602052968490729680C
:1011000006D401F00701081A18BF0120B0BD00BFC6
:1011100021F0070108432860FFF712FF044600BFD3
:1011200055F8080C800407D4FFF70AFF001BB0F540
:101130007A7FF5D90120B0BD0020B0BD00000000CD
:1011400080B500F0EDFF44F2204146F67462C5F62A
:101150000201C0F600020968C1F30211515C01F0FE
:101160001F01C84080BD000080B544F2384EC5F66E
:10117000020E5EF8103C5EF8101C5EF80C2CC1F3F9
:10118000053CDEF80410BCF1000F19D0C9089FED32
:101190003C1AD20601EAE27103F003026FF35F31F9
:1011A00000EE101AB8EE400ADFE802F00222102228
:1011B0005EF8381C89060DD49FED331A18E000BF85
:1011C00000218160C0E9001180BD00BF9FED2D1A94
:1011D0000EE000BF5EF8381C49F20002C0F2D032C7
:1011E000C1F3C10122FA01F101EE101AB8EE411A61
:1011F000DEF800109FED253A6FF35F2102EE101A22
:10120000DEF80010C1F34621B8EE422A013100EEAB
:10121000032A00EE10CAB7EE003AB8EE400A81EE9B
:10122000000A32EE031A20EE010A01EE101AB8EE9F
:10123000411A80EE011ABCEEC11A80ED001ADEF8E8
:101240000010C1F30641013101EE101AB8EE411A47
:1012500080EE011ABCEEC11A80ED011ADEF8001012
:10126000C1F30661013101EE101AB8EE411A80EEA9
:10127000010ABCEEC00A10EE101A816080BD00BFEA
:101280000024744A20BCBE4B0024744C000000397A
:1012900080B544F2404EC5F6020E5EF8183C5EF88A
:1012A000181C5EF8142CC1F3055CDEF80410BCF1C8
:1012B000000F19D0C9089FED3C1AD20501EAE2716E
:1012C00003F003026FF35F3100EE101AB8EE400A2C
:1012D000DFE802F0022210225EF8401C89060DD4DD
:1012E0009FED331A18E000BF00218160C0E90011B2
:1012F00080BD00BF9FED2D1A0EE000BF5EF8401CC0
:1013000049F20002C0F2D032C1F3C10122FA01F168
:1013100001EE101AB8EE411ADEF800109FED253AE2
:101320006FF35F2102EE101ADEF80010C1F34621C0
:10133000B8EE422A013100EE032A00EE10CAB7EEE1
:10134000003AB8EE400A81EE000A32EE031A20EEAF
:10135000010A01EE101AB8EE411A80EE011ABCEE35
:10136000C11A80ED001ADEF80010C1F30641013108
:1013700001EE101AB8EE411A80EE011ABCEEC11A45
:1013800080ED011ADEF80010C1F30661013101EEB3
:10139000101AB8EE411A80EE010ABCEEC00A10EE37
:1013A000101A816080BD00BF0024744A20BCBE4B6F
:1013B0000024744C000000392DE9F0470446C07841
:1013C00044F22C480007C5F6020828D5A06E4FEA63
:1013D000305103292AD8DFE801F0030B131B00BFAB
:1013E000D8F8001041F40031C8F8001010E000BF38
:1013F00004F10800022102F0A7FC064680B906E0CD
:1014000004F12800022102F033FD064640B9A06E27
:10141000D8F8241021F440110843C8F8240000260D
:101420006078C00706D135462FE000BF01266078FE
:10143000C007F8D0A06D042858D83546DFE800F082
:1014400004140E0B0B0000BFD8F80000354640F422
:101450000030C8F800002F46C5B90DE004F128009F
:10146000002102F005FD04E004F10800002102F073
:101470006BFC05462F464DB9D8F82400A16D20F02D
:10148000070000250843C8F8240037466078800725
:1014900031D5E06D4FEAB01004285FD8DFE800F0E6
:1014A00004140E0A0A0000BFD8F8000040F400300F
:1014B000C8F800002E46FDB90EE000BF04F1280078
:1014C000002102F0D5FC04E004F10800002102F044
:1014D0003BFC05462E467DB9D8F82400E16D20F48A
:1014E000E07000250843C8F8240004E00125012726
:1014F00060788007CDD43E466078400733D5D4F875
:10150000A8004FEA7050042860D8DFE800F0031309
:101510000D090900D8F8000040F40030C8F80000B8
:10152000A9460DBB0EE000BF04F12800002102F027
:101530009FFC04E004F10800002102F005FC0546D0
:10154000A9468DB9D8F82C00D4F8A81020F4600072
:1015500000250843C8F82C0005E000BF012501263E
:1015600060784007CBD4B1466078000734D5D4F812
:10157000AC004FEA306004285ED8DFE800F00313C7
:101580000D090900D8F8000040F40030C8F8000048
:101590002F4615BB0EE000BF04F12800002102F029
:1015A00067FC04E004F10800002102F0CDFB0546D1
:1015B0002F4695B9D8F82C00D4F8AC1020F0E06094
:1015C00000250843C8F82C0006E000BF01254FF0B5
:1015D000010960780007CAD44F46E078800730D50B
:1015E000E06C4FEA3010032820D8DFE800F0090350
:1015F000150900BFD8F8000040F40030C8F800001A
:101600002E46ADB9D8F82000E16C20F0300000255E
:101610000843C8F8200014E004F10800022102F099
:1016200093FB05462E461DB9ECE700BF01250126B8
:101630006078C00609D434E001250127E0788007EE
:10164000CED43E466078C0062BD5206E4FEA3030AF
:10165000042839D8DFE800F004140E0A0A0000BF9D
:10166000D8F8000040F40030C8F800002F46CDB98B
:101670000EE000BF04F12800002102F0F9FB04E0B5
:1016800004F10800002102F05FFB05462F464DB92A
:10169000D8F82400216E20F4E04000250843C8F863
:1016A000240037466078800635D5606E4FEA3040BA
:1016B000052815D8DFE800F0041A0E04040400BF62
:1016C0002E46DDB91EE000BF0125012760788006A7
:1016D000EBD420E004F12800012102F0C9FB0AE06C
:1016E000012501266078400619D449E004F108007C
:1016F000012102F029FB05462E461DB16078400607
:101700000DD43DE0D8F82400616E20F4E0200025DF
:101710000843C8F824003E466078400630D5D4F827
:10172000B0004FEA307005280ED8DFE800F0031350
:10173000070303032F46ADB918E000BF04F12800EA
:10174000012102F095FB0AE00125012760780006DF
:101750001AD43CE004F10800012102F0F5FA054634
:101760002F461DB1607800060ED430E0D8F82C006A
:10177000D4F8B01020F0E04000250843C8F82C0051
:1017800037466078000622D5206F58B1B0F1005F6F
:101790000CD0B0F1805F37D1D8F8000040F40030B1
:1017A000C8F800002E469DB908E000BF04F108000B
:1017B000012102F0C9FA05462E464DB9D8F8240099
:1017C000216F20F0405000250843C8F824003E4611
:1017D000E078C0071DD0A06C032855D8DFE800F0E2
:1017E00008024A08D8F8000040F40030C8F80000A9
:1017F000A9467DB9D8F82000A16C20F0030000258F
:101800000843C8F8200004E001250126E078C0075D
:10181000E1D1B146A078400602D44F4618E000BF9F
:10182000D8F8D40340F48070C8F8D403FFF788FBDD
:10183000064600BFD8F8D403C00507D4FFF780FBE5
:10184000801B6428F6D90325032701E02F46FDB14C
:101850002078C00700F06F80E06F4FEAF0000528A5
:101860004ED8DFE800F0035347030303002D2E4654
:1018700054D157E004F10800022102F065FA054650
:10188000002DA946C6D1B5E701254FF00109C1E7F2
:10189000D8F84410D4F8B400414011F4407F11D07E
:1018A000D8F84410D8F8442042F48032C8F84420D4
:1018B000D8F8442021F4407122F48032C8F8442042
:1018C000C8F84410B0F5807F40F0E082FFF738FBA5
:1018D000064641F2883A0325032700BFD8F84400A2
:1018E000800700F1D182FFF72BFB801B5045F5D913
:1018F000AEE700BF04F12800012102F0B9FA0AE0C6
:10190000012501262078800719D446E004F108005B
:10191000012102F019FA05462E461DB120788007F4
:101920000DD43AE0D8F82800E16F20F03800002507
:101930000843C8F828003E46207880072DD5A06FC0
:1019400005280FD8DFE800F004140804040400BFE1
:101950002F46ADB918E000BF04F12800012102F0C4
:1019600087FA0AE0012501272078400719D447E0CB
:1019700004F10800012102F0E7F905462F461DB1E8
:10198000207840070DD43BE0D8F82800A16F20F064
:10199000070000250843C8F828003746207840078C
:1019A0002ED5D4F8940005280ED8DFE800F00313F4
:1019B000070303032E46ADB918E000BF04F1280069
:1019C000012102F055FA0AE001250126207880065F
:1019D0001AD44BE004F10800012102F0B5F90546E4
:1019E0002E461DB1207880060ED43FE0D8F82C009A
:1019F000D4F8941020F0070000250843C8F82C0004
:101A00003E462078800631D5D4F890004FEA3070F9
:101A100005280FD8DFE800F004140804040400BF10
:101A20002F46ADB918E000BF04F12800022102F0F2
:101A30001FFA0AE001250127207840061AD44BE05E
:101A400004F10800002102F07FF905462F461DB180
:101A5000207840060ED43FE0D8F82800D4F8901043
:101A600020F0E04000250843C8F8280037462078D9
:101A7000400631D5D4F89C004FEAB02005280FD895
:101A8000DFE800F004140804040400BF2E46ADB9DA
:101A900018E000BF04F12800022102F0E9F90AE091
:101AA00001250126207800061AD44EE004F1080032
:101AB000002102F049F905462E461DB120780006A6
:101AC0000ED442E0D8F82C00D4F89C1020F4E0505A
:101AD00000250843C8F82C003E462078000634D57F
:101AE000D4F8A0004FEA7030052815D8DFE800F0E0
:101AF000041A0E04040400BF2F46E5B12068010754
:101B000027D4C1063ED4000355D477E004F1280061
:101B1000022102F0ADF90AE0012501272068010742
:101B2000EFD516E004F10800002102F00DF905469A
:101B3000002D2F46E2D1D8F82C00D4F8A01020F4C4
:101B4000604000250843C8F82C003746206801078C
:101B5000D7D5D4F88400B0F5805F09D104F128000E
:101B6000022102F085F9002818BF0127D4F884006B
:101B7000D8F8281021F440510843C8F828002068FC
:101B8000C106C0D5D4F89800B0F5807F09D104F122
:101B90002800022102F06CF9002818BF0127D4F8B0
:101BA0009800D8F82C1021F440710843C8F82C0094
:101BB0002068000322D5D4F8A400B0F5003F11D06E
:101BC000B0F5803F08D0002844D104F1080000217E
:101BD00002F0BAF805E000BF04F12800022102F08B
:101BE00047F905462E4655B9D8F82C00D4F8A4106C
:101BF00020F4403000250843C8F82C003E46A07869
:101C000040072CD5D4F88800B0F5401F0BD0B0F5B4
:101C1000001F0BD0B0F5801F2AD1D8F8000040F487
:101C20000030C8F800002F46D5B907E004F12800BD
:101C3000012102F01DF905462F468DB9D8F828007C
:101C4000D4F8881020F4401000250843C8F8280074
:101C500005E000BF01250126A0784007D2D4374611
:101C6000A078C00709D13E462168880015D532E02A
:101C700001250127A078C007F5D0206DB0F5803F81
:101C800010D018BBD8F8000040F40030C8F80000AD
:101C90002E4685B1216888001DD460688A0326D449
:101CA00069E000BF04F10800022102F04DF805468A
:101CB000002D2E46EED1D8F82000216D20F4803082
:101CC00000250843C8F82000CDE700BF0125012604
:101CD00021688800E1D504F12800022102F0C8F84B
:101CE000002818BF0126D4E900108A0343D5D4F890
:101CF00080206FF0010303EB3223022B0BD34FEA5A
:101D0000322343B1012B40F0B980D8F8003043F4BE
:101D10000033C8F800303DB3CA022FD4CA0037D40C
:101D20008A0240D44A0048D4CA0F55D109025DD472
:101D3000C10766D181076FD4410779D4010700F14B
:101D40008380C10600F18C80800607D504F128004D
:101D5000022102F08DF8002818BF0125002D18BFC0
:101D600001252846BDE8F087D8F8283023F44073D1
:101D70001A43C8F828203546CA02CFD5D8F82420FF
:101D8000636F22F000421A43C8F82420CA00C7D566
:101D900058F81C2CD4F8B83022F480421A4348F882
:101DA0001C2C8A02BED5D8F82420E36E22F0807263
:101DB0001A43C8F824204A00B6D558F81C2C22F43F
:101DC000004248F81C2CD4F8BC2058F81C3C1A439C
:101DD00048F81C2CCA0FA9D0D8F82020636D22F037
:101DE00040521A43C8F820200902A1D5D8F828107B
:101DF000D4F88C2021F440011143C8F82810C10701
:101E000098D004F10800002101F09EFF002818BFBF
:101E10000546606881078FD504F10800012101F0B3
:101E200093FF002818BF0546606841077FF586AF1D
:101E300004F10800022101F087FF002818BF0546C1
:101E4000606801077FF57DAF04F12800002102F0F2
:101E50000FF8002818BF05466068C1067FF574AF0B
:101E600004F12800012102F003F8002818BF0546FC
:101E7000606880063FF56AAF70E700BF0125CA02BF
:101E80007FF54CAF7AE700BFD4F8B4004FF6CF73BC
:101E900058F81C2CC0F2FF0300F4407122F47C526D
:101EA00003EA10136FF31F30B1F5407F08BF1A43E8
:101EB000002548F81C2CD8F844100843C8F8440002
:101EC000FFF7ABBC000000002DE9F04381B0002813
:101ED00000F0208142F200090446C5F20029D9F839
:101EE000000000F00F0081420DD9D9F8000020F069
:101EF0000F000843C9F80000D9F8000000F00F00F7
:101F0000884240F00781206844F218464207C5F62F
:101F100002060AD52269336803F070039A4204D995
:101F2000336823F070031A43326002070AD56269EE
:101F3000736803F070039A4204D9736823F0700346
:101F40001A437260C2060AD5A269736803F4E0639B
:101F50009A4204D9736823F4E0631A4372608206DC
:101F60000AD5E269B36803F070039A4204D9B368F2
:101F700023F070031A43B26010F002020AD0E36843
:101F8000376807F00F07BB4204D9376827F00F07FF
:101F90003B433360C3073FD0306820F47062D4E91C
:101FA00001031A433260012856F8182C0AD003287E
:101FB00004D002280AD192030BD4ABE0920108D4DA
:101FC000A8E000BFD20504D4A4E000BF520740F14E
:101FD000A180884656F8081C21F00701084346F8FE
:101FE000080CFEF7ADFF054641F2883756F8080C9D
:101FF000616800F03800B0EBC10F09D0FEF7A0FF18
:10200000401BB842F2D9032001B0BDE8F08300BF05
:102010002068414600F0020252B1E268336803F0E2
:102020000F039A4204D2336823F00F031A4332603D
:10203000D9F8002002F00F0291420CD2D9F800200A
:1020400022F00F020A43C9F80020D9F8002002F05C
:102050000F028A425ED141070AD52169326802F037
:102060007002914204D2326822F070021143316052
:1020700001070AD56169726802F07002914204D2C8
:10208000726822F0700211437160C1060AD5A1691D
:10209000726802F4E062914204D2726822F4E06253
:1020A0001143716080060AD5E069B16801F07001E2
:1020B000884204D2B16821F070010843B06000F09A
:1020C000B7F8316846F67462C0F60002C1F3032126
:1020D000515C336803F00F0301F01F01D25C20FA5A
:1020E00001F102F01F0040F21402C2F2004221FA94
:1020F00000F0106040F20C0040F21002C2F200400A
:10210000C2F200420068116001B0BDE8F043FEF782
:1021100063BF00BF012001B0BDE8F08300000000F4
:1021200080B500F085F844F2184146F67463C5F6B0
:102130000201C0F600030A68C2F303229A5C096830
:1021400001F00F0102F01F02595C20FA02F201F0C7
:102150001F0040F21401C2F2004122FA00F00860B0
:1021600040F21001C2F200410A6080BD0000000090
:1021700080B500F05DF844F2184C46F67463C5F67D
:10218000020CC0F60003DCF80020C2F303229A5CC4
:10219000DCF8001001F00F0102F01F02595CD04082
:1021A00040F21402C2F2004201F01F0120FA01F1D4
:1021B000116040F21002C2F200421060DCF804002C
:1021C000C0F30210185C00F01F0021FA00F080BD7F
:1021D00080B500F02DF844F2184C46F67463C5F64D
:1021E000020CC0F60003DCF80020C2F303229A5C64
:1021F000DCF8001001F00F0102F01F02595CD04022
:1022000040F21402C2F2004201F01F0120FA01F173
:10221000116040F21002C2F200421060DCF80400CB
:10222000C0F30220185C00F01F0021FA00F080BD0E
:1022300044F20041C5F602010869C0F3C200032858
:1022400016D002280ED0002832D10868800649F244
:102250000000C0F2D03058BF70470968C1F3C10117
:10226000C840704747F64000C0F27D10704700BF7D
:102270008B6A886AD1F82CC04A6BC0F30510E8B1AC
:10228000C2F3CC0203F0030300EE102A9FED2A1ADA
:10229000B8EE400A20EE010A9FED281ADFE803F0AD
:1022A000022110210A6892060ED49FED261A18E02A
:1022B00040F60010C0F23D00704700BF002070479C
:1022C0009FED1F1A0DE000BF0A6849F20003C0F23B
:1022D000D033C2F3C10223FA02F201EE102AB8EEA3
:1022E000411A0A6B9FED183A6FF35F2202EE102A33
:1022F0005FEACC7203FE000A03EE100A086BB8EE28
:10230000422AC0F34620B8EE433A013030EE020ACA
:10231000B7EE002A81EE031A30EE020A21EE000A1F
:1023200001EE100AB8EE411A80EE010ABCEEC00AB6
:1023300010EE100A704700BF000000390024744AF4
:1023400020BCBE4B0024744C0000000000000000C4
:1023500070B3F0B581B00446007844F20046C0077F
:10236000C5F6020626D12078800740F1C280306988
:1023700010F03801B06A3FD0182908BF5FEA8070BA
:102380003AD0E0683168002862D021F01901084392
:102390003060FEF7D5FD05463068400748D4FEF7AB
:1023A000CFFD401B0228F7D9032001B0F0BD00BFCC
:1023B00001207047306900F03801B06A102905D05B
:1023C00018290BD100F00300022807D130688003E0
:1023D000C9D560680028C6D13CE100BF616830689B
:1023E00000294FD0B1F5A02F44D0B1F5803F5FD187
:1023F00040F4803062E000BF30684007E06802D5FA
:10240000002800F02781316821F01901084330606D
:10241000FEF796FD054600BF3068400708D4FEF77A
:102420008FFD401B02284FF00300F5D901B0F0BD2D
:10243000FEF77EFD41F2030188424FD820697168A2
:10244000402821F47C3151D141F4003050E000BFEC
:1024500021F001003060FEF773FD0546306840074B
:1024600047D5FEF76DFD401B02284FF00300F5D95C
:10247000DCE700BF40F480203060306840F48030FA
:102480001CE000BF20F480303060306820F48020F1
:102490003060FEF755FD0546306880037FF563AF79
:1024A000FEF74EFD401B64284FF00300F4D9BDE752
:1024B00020F480303060306820F480203060FEF7F7
:1024C0003FFD0546306880033FF54DAFFEF738FD10
:1024D000401B6428F6D9032001B0F0BD7068216963
:1024E00020F0FE4040EA016002E000BF41EA003017
:1024F00070602078C00654D5306900F03801B06AA9
:10250000082905D0182919D100F00300012815D198
:102510003068C00503D5E069802840F09B80FEF755
:1025200007FD41F2030188421ED8206A7168202805
:1025300021F0F84132D141F0804031E0E0690028DB
:10254000306819D040F080003060FEF7F9FC054695
:102550003068C005E3D4FEF7F3FC401B02284FF0BF
:102560000300F5D962E700BFF068216A20F07C50D3
:1025700040EA0160F06014E020F080003060FEF777
:10258000DFFC05463068C0050BD5FEF7D9FC401BC3
:1025900002284FF00300F5D948E700BF41EA806008
:1025A0007060207800073FD42078800656D42078C9
:1025B000400769D4656A9DB3306900F03800182877
:1025C00040F0A880012DB16A306B43D001F00302C6
:1025D000A36A9A423ED1C1F30511E26A914239D110
:1025E0000146226B6FF35F21013A914232D1C0F371
:1025F0004622616B01398A422CD1C0F30642A16B9D
:1026000001398A4226D1C0F30660E16B0139884264
:1026100020D1706BA16CC0F3CC00814240F03481BA
:10262000002001B0F0BD00BF60690028706F41D08C
:1026300040F001007067FEF783FC0546706F80076D
:10264000B2D4FEF77DFC401B0228F7D9032001B06D
:10265000F0BD00BF012001B0F0BD00BFA06900289F
:10266000306845D040F480503060FEF769FC054684
:10267000306880049BD4FEF763FC401B0228F7D926
:10268000032001B0F0BD00BFD6F8000440F4807014
:10269000C6F80004FEF754FC054600BFD6F8000457
:1026A000C00519D4FEF74CFC401B6428F6D9032062
:1026B00001B0F0BD20F001007067FEF741FC054657
:1026C000706F80077FF570AFFEF73AFC401B022861
:1026D0004FF00300F4D9A9E6A168306F002943D078
:1026E000052939D0012957D140F001005AE000BF37
:1026F00020F480503060FEF723FC054630688004EB
:102700007FF555AFFEF71CFC401B02284FF003007D
:10271000F4D98BE6306820F080703060FEF710FC52
:10272000022D05460CD100BF306880014CD5FEF764
:1027300007FC401B02284FF00300F5D976E600BFE6
:10274000306880017FF56CAFFEF7FAFB401B022872
:102750004FF00300F4D969E640F004003067306FB1
:1027600040F001001EE000BF20F001003067306F34
:1027700020F004003067FEF7E3FB054641F288379E
:10278000306F80077FF516AFFEF7DAFB401BB842CB
:102790004FF00300F4D949E620F001003067306FB4
:1027A00020F004003067FEF7CBFB054641F2883786
:1027B000306F80073FF5FEAEFEF7C2FB401BB8420C
:1027C0004FF00300F4D931E604F12807B06A40F273
:1027D000F33188438ECF0843591E40EA02104FF46C
:1027E0007E426FF35F21B06202EB47204FF4FE029E
:1027F00080B2E36B0844A16B02EB01414FF0FE4253
:1028000001F4FE0102EB0362084402F0FE410844B9
:102810003063F06A4FF6F87120F00100F062706BDF
:10282000A26C884340EAC2007063F06A216C20F019
:102830000C000843F062F06A616C20F0020008436B
:10284000F062F06A40F48030F062F06A40F40030E8
:10285000F062F06A40F48020F062F06A40F001001B
:10286000F062306840F080703060FEF769FB04462B
:10287000306880013FF5D4AEFEF762FB001B0228F2
:102880004FF00300F4D9D1E5F06A20F00100F062C6
:10289000FEF756FB0546FEF753FBA842FBD0706BD4
:1028A0004FF6F871A26C884340EAC2007063F06A88
:1028B00040F00100F062002001B0F0BD0000000017
:1028C000411E0020B0EB116F02D00120704700BF05
:1028D0004EF21002F023CEF2000251604EF6235168
:1028E000CEF200010B70072190601160704700006C
:1028F00090F83C20012A4FF002025ED0B0B580F87B
:102900003D2040F2004C0268C4F2010C42F48063A6
:1029100063455368D2F808E002BF23F470034C68A3
:10292000234341F2FF740D68C4F2000423F07003E6
:10293000A24243EA050353600CDC40F2FF73C4F289
:1029400000039A4216DCB2F1804F29D040F20043D6
:1029500018E000BF40F2FF33C4F201039A4217DCD3
:1029600041F60003C4F200039A4219D00023C4F2D6
:10297000010309E040F60003C4F200039A420FD0BD
:1029800040F60043C4F200039A4209D00DE000BFB4
:1029900044F20003C4F201039A4201D0624504D11B
:1029A0002EF080038968194391600022012180F88C
:1029B0003D1080F83C20BDE8B04010467047000054
:1029C00060B310B5044690F83D0028B9002084F8A3
:1029D0003C00204600F024F8022084F83D002068E6
:1029E000211D01F025FD012084F8480084F83E00F7
:1029F00084F83F0084F8400084F8410084F84200E5
:102A000084F8430084F8440084F8450084F84600C4
:102A100084F8470084F83D00002010BD0120704775
:102A200082B040F600010068C4F20001884215D06F
:102A300040F20041C4F2000188421CD144F2E84057
:102A4000C5F60200016841F002010160006800F073
:102A500002000190019802B0704700BF44F2E840C4
:102A6000C5F60200016841F004010160006800F051
:102A700004000090009802B07047000000000000C1
:102A800090F83C20012A4FF0020200F0AA8080B5A5
:102A900080F83D208822D0F800C0CFF6CE72DCF856
:102AA00008301A40CCF808200B686F2B0EDDB3F10C
:102AB000101F37DAB3F5005F6EDA702B00F0B680C6
:102AC000B3F5805F00F08480D8E000BF2F2B33DDAA
:102AD0004F2B39DC302B6FD0402B40F0CF80D1F81A
:102AE00004E0C968DCF82030DCF8202022F0010284
:102AF000CCF82020DCF8182022F0F00242EA011184
:102B000023F00A02CCF8181042EA0E01CCF820108B
:102B10004FF68872DCF80810CFF6CF7211404731BB
:102B200054E000BF2F21C0F210018B423ADCB3F118
:102B3000101F41D020213BE0002B18BF102B3BD0B1
:102B4000202B39D09AE000BF502B4DD0602B40F0A5
:102B50009580D1F804E0C968DCF82030DCF820204A
:102B600022F01002CCF82020DCF8182022F4704269
:102B700042EA013123F0A002CCF8181042EA0E110B
:102B8000CCF820104FF68872DCF80810CFF6CF7220
:102B9000114067311AE000BF5CD0B3F5801F0BD045
:102BA0006CE000BF3021C0F210018B4204D0402104
:102BB000C0F210018B4261D14FF68872DCF8081028
:102BC000CFF6CF721140194341F00701CCF808103D
:102BD0000022012180F83D10002180F83C10BDE862
:102BE00080401046704700BFD1F804E0C968DCF8A7
:102BF0002030DCF8202022F00102CCF82020DCF884
:102C0000182022F0F00242EA011123F00A02CCF867
:102C1000181042EA0E01CCF820104FF68872DCF84A
:102C20000810CFF6CF7211405731CFE701F1040EF3
:102C30009EE80C40DCF808101A4321F47F4142EA78
:102C40000E221143CCF80810DCF8081041F077018F
:102C5000BCE700BF01F1040E9EE80C40DCF8081050
:102C60001A4321F47F4142EA0E221143CCF80810A6
:102C7000DCF8081041F48041A8E700BF0122A8E772
:102C800090F88410012901D1022070472421C0F856
:102C9000881001680A680B6822F0005223F00103D3
:102CA0000B60002343660A602021C0F8881080F87A
:102CB00084300020704700007047000000000000D2
:102CC000704700000000000090F88420012A01D124
:102CD0000220704770B52422C0F888200268D0F81E
:102CE00064E0BEF1000FD2F800C0136823F00103C6
:102CF0001360936823F0606341EA0301916019D087
:102D0000916846F69C6E9368C0F6000E5B0F46F61F
:102D1000A465C1F34266C0F600051EF80340E95CF5
:102D20002301B3FBF1F11EF80630AE5D1B01B3FBCE
:102D3000F6F301E001210123A0F86A102021A0F898
:102D40006830C2F800C0C0F88810002180F88410F4
:102D5000002070BD0000000090F88420012A01D1FD
:102D60000220704770B52422C0F888200268D0F88D
:102D700064E0BEF1000FD2F800C0136823F0010335
:102D80001360936823F0604341EA0301916019D016
:102D9000916846F69C6E9368C0F6000E5B0F46F68F
:102DA000A465C1F34266C0F600051EF80340E95C65
:102DB0002301B3FBF1F11EF80630AE5D1B01B3FB3E
:102DC000F6F301E001210123A0F86A102021A0F808
:102DD0006830C2F800C0C0F88810002180F8841064
:102DE000002070BD000000007047000000000000DF
:102DF000704700000000000044F6004C0068C4F278
:102E0000000C604518BF704740F218000122C2F262
:102E100000400823411C40F29C10C2F20040CCF854
:102E2000203000F065BC000070B5016840F62F024C
:102E3000CB691A40202A0A688E680BD102F0200460
:102E400006F080552D1917D0416F69B3BDE8704069
:102E5000084700BF40F60F052B420DD0012540F278
:102E60002014C1F20005C0F2004406EA050C02EA93
:102E7000040515EB0C0525D1DD06C46E16D5012C15
:102E800014D112F0100511D010220A628968490687
:102E900066D4B0F85C10B0F85E20B0F85E30002B5D
:102EA00018BF914240F0688270BD00BFDD0215D5A9
:102EB00016F4800512D04FF480120A62BDE870400B
:102EC000FFF796BFDD0718BF12F4807540F02A8126
:102ED0009D0706F0010E00F131813AE1190606D591
:102EE00002F0800106F40006891940F0CB825906F1
:102EF00040F10C8112F0400100F00881016851E8B6
:102F0000001F026821F0400142E80013F3B101689C
:102F100051E8001F026821F0400142E80013002B35
:102F20001FBF016851E8001F026821F040011CBF6B
:102F300042E80013002B09D0016851E8001F026825
:102F400021F0400142E80013002BD7D12021C0F826
:102F5000881000218167BDE8704000F019BD00BFF6
:102F6000D0F8802011684B68B0F85C4099B2002915
:102F700000F0C280A14280F0BF80A0F85E30D1692D
:102F8000B1F5807F00F0AC80016851E8001F026855
:102F900021F4807142E80013F3B1016851E8001F89
:102FA000026821F4807142E80013002B1FBF016802
:102FB00051E8001F026821F480711CBF42E8001331
:102FC000002B09D0016851E8001F026821F48071CC
:102FD00042E80013002BD7D1016851E8021F0268B4
:102FE00021F0010142E80213F3B1016851E8021F28
:102FF000026821F0010142E80213002B1FBF0168A3
:1030000051E8021F026821F001011CBF42E80213CF
:10301000002B09D0016851E8021F026821F001016C
:1030200042E80213002BD7D1016851E8021F026861
:1030300021F0400142E80213F3B1016851E8021F98
:10304000026821F0400142E80213002B1FBF016813
:1030500051E8021F026821F040011CBF42E8021340
:10306000002B09D0016851E8021F026821F04001DD
:1030700042E80213002BD7D12021C0F88C10002188
:10308000C166016851E8001F026821F0100142E8A2
:103090000013F3B1016851E8001F026821F010012C
:1030A00042E80013002B1FBF016851E8001F0268AF
:1030B00021F010011CBF42E80013002B09D0016869
:1030C00051E8001F026821F0100142E80013002BB4
:1030D000D7D1D0F8801004460846FDF749FA2046BB
:1030E00002210167B0F85C10B0F85E20891A89B23D
:1030F000BDE87040FFF7E0BD8C427FF4D5AED269E9
:10310000B2F5807F7FF4D0AEB6E100BF190240F186
:10311000C58112F0804100F0C181BDE87040FFF729
:1031200063BE00BF01250D62D0F8905045F0010547
:10313000C0F890509D0706F0010E0AD5BEF1000FB1
:1031400007D002240C62D0F8904044F00404C0F888
:1031500090405C070AD5BEF1000F07D004250D6230
:10316000D0F8905045F00205C0F890501D070CD5DE
:1031700002F0200555EA0C0507D008250D62D0F8AD
:10318000905045F00805C0F890501D050BD512F081
:10319000806508D04FF400650D62D0F8905045F07E
:1031A0002005C0F89050D0F89050002D3FF47CAE30
:1031B0009B060BD502F0200206F08053D21805D0F2
:1031C000426F1AB10446904720462168D0F89020FB
:1031D000896801F0400102F02802891806D10446EE
:1031E000FFF70AFE0020C4F8900070BD016851E8A6
:1031F000001F026821F4907142E80013F3B10168E6
:1032000051E8001F026821F4907142E80013002B7E
:103210001FBF016851E8001F026821F490711CBFB4
:1032200042E80013002B09D0016851E8001F026832
:1032300021F4907142E80013002BD7D14FF6FE71B4
:10324000CEF6FF71026852E8022F03680A4043E895
:103250000226DEB1026852E8022F03680A4043E802
:103260000226002E1FBF026852E8022F03680A40A0
:103270001CBF43E80226002E08D0026852E8022F45
:1032800003680A4043E80226002EDBD1C16E012903
:1032900027D1016851E8001F026821F0100142E8BF
:1032A0000013F3B1016851E8001F026821F010011A
:1032B00042E80013002B1FBF016851E8001F02689D
:1032C00021F010011CBF42E80013002B09D0016857
:1032D00051E8001F026821F0100142E80013002BA2
:1032E000D7D12021C0F88C100021C1660268416747
:1032F0009168490640F1CE80016851E8021F0268DA
:1033000021F0400142E80213F3B1016851E8021FC5
:10331000026821F0400142E80213002B1FBF016840
:1033200051E8021F026821F040011CBF42E802136D
:10333000002B09D0016851E8021F026821F040010A
:1033400042E80213002BD7D1D0F88010002900F0FA
:10335000A18044F6010204460846C0F600020A6550
:10336000FDF79AFB00283FF49FADD4F88000016D73
:10337000BDE87040084700BF891A026852E8002F74
:10338000036822F4907243E80026F6B1026852E81E
:10339000002F036822F4907243E80026002E1FBF1E
:1033A000026852E8002F036822F490721CBF43E8C1
:1033B0000026002E09D0026852E8002F036822F48C
:1033C000907243E80026002ED7D14FF6FE72CEF65B
:1033D000FF72036853E8023F0668134046E802356F
:1033E000DDB1036853E8023F0668134046E8023542
:1033F000002D1FBF036853E8023F066813401CBF3F
:1034000046E80235002D08D0036853E8023F0668FD
:10341000134046E80235002DDBD12022C0F88C2075
:103420000022C2664267026852E8002F036822F059
:10343000100243E80026F6B1026852E8002F036844
:1034400022F0100243E80026002E1FBF026852E857
:10345000002F036822F010021CBF43E80026002E54
:1034600009D0026852E8002F036822F0100243E8F6
:103470000026002ED7D189B202220267BDE8704033
:10348000FFF71ABC816F00293FF40EADBDE8704014
:10349000084700BFBDE87040FFF7AEBCD9017FF51B
:1034A00003ADB2F1FF3FC8BF70BDBDE87040FFF78C
:1034B00007BC00000000000010B5D8B10446D0F8E9
:1034C000880028B9002084F88400204600F028F8FD
:1034D0002420C4F888002068A16A0268002922F02C
:1034E0000101016002D0204601F062F8204601F09F
:1034F00097FE08B1012010BD2068416821F4904179
:103500004160816821F02A018160016841F0010178
:1035100001602046BDE8104001F0BAB8000000008C
:1035200010B5B8B000210446CDE93611CDE934110B
:10353000339102A8C021FCF707FF44F6FF71206811
:10354000C4F20001884233DC44F20041C4F20001BD
:10355000884263D044F60041C4F20001884240F042
:10356000C280002003900220029002A8FDF724FFF1
:1035700008B1FCF7DDFF44F2E0403424C5F6020058
:103580000322816841F400218160816801F40021F7
:1035900001910199016841F0010101600068082171
:1035A00000F00100019001980020C5F6020088E0BB
:1035B00045F20001C4F20001884259D047F60041AB
:1035C000C4F20001884240F08E8000200390022067
:1035D000029002A8FDF7F0FE08B1FCF7A9FF44F243
:1035E000E0405324C5F602000322816841F0004107
:1035F0008160816801F0004101910199016841F009
:10360000100101600068082100F01000019001988D
:103610000020C5F6020000F5805052E00020039023
:103620000220029002A8FDF7C7FE08B1FCF780FF58
:1036300044F2E0402624C5F602006022816841F48D
:1036400000318160816801F40031019101990168C4
:1036500041F0080101600068072100F008000190B6
:1036600001980020C5F6020000F5406029E000BF87
:10367000002003900220029002A8FDF79DFE08B1F1
:10368000FCF756FF44F2E0403524C5F602004FF443
:103690004052816841F480118160816801F4801199
:1036A00001910199016841F00201016000680E2159
:1036B00000F00200019001980020C5F6020000F51C
:1036C0008060379133A93392022234920022CDE9EF
:1036D0003522FDF751FB002100222046FDF7C8FCF2
:1036E0002046FDF7B1FC38B010BD0000000000001E
:1036F000D0F88C30202B07D10123002918BF002AD5
:1037000006D11846704700BF02231846704700BF15
:1037100080B50023C36640F60043D0F800C0C5F66C
:1037200000039C4503D0DCF804301B0204D401F0F4
:10373000BBFF002080BD00BF036853E800CFD0F876
:1037400000E04CF080634EE8003CBCF1000FEED08E
:10375000036853E800CFD0F800E04CF080634EE8F7
:10376000003CBCF1000F1FBF036853E800CFD0F846
:1037700000E04CF080631CBF4EE8003CBCF1000F41
:10378000D5D0036853E800CFD0F800E04CF0806358
:103790004EE8003CBCF1000FCED1C8E700000000AD
:1037A00044F600410068C4F20001884218BF704727
:1037B000B0B540F21805C2F200456C1C2046FCF77B
:1037C000CEFD29786A18013129702146907040F2A7
:1037D0009C10C2F200400122BDE8B040FFF788BF54
:1037E0002DE9F04381B00446D0F88800202807D1A5
:1037F0000120002918BF002A06D101B0BDE8F083DE
:10380000022001B0BDE8F0831D460E460020C4F83A
:1038100090002120C4F888001746FDF791FBA4F81A
:1038200054708146A4F85670A168B1F5805F02D14A
:103830002069002866D037460020B4F856100029C9
:10384000216867D06A1C28D0002D53D0804600BF65
:10385000C86900060AD4FDF773FBA0EB0900A84273
:1038600000F2848021680868F2E700BF17B117F8FA
:10387000010B04E038F8020B00276FF35F20886229
:10388000B4F856000138A4F85600B4F856000028E1
:10389000DED13FE0CA69120609D4CA69120606D40D
:1038A000CA6912065CBFCA695FEA0262F2D51FB13B
:1038B00017F8012B05E000BF30F8022B00276FF34B
:1038C0005F228A62B4F85620013AA4F85620B4F870
:1038D0005620002AE1D11DE030F8022B00276FF3BB
:1038E0005F228A62B4F85620013AA4F85620B4F850
:1038F00056207AB1CA69120636D5002FECD017F8D7
:10390000012BEEE700273046B4F856100029216855
:103910007FF498AFC86940061ED42DB3681C14D13B
:10392000C86940062AD4C869400627D4C869400639
:1039300024D4C86940064FF00000F1D50DE000BF67
:1039400020680168C069400618D4FDF7F9FAA0EBB9
:103950000900A842F4D909E000202021C4F8881009
:1039600001B0BDE8F08300BFFDF7EAFA0320202193
:10397000C4F8881001B0BDE8F08300BF002020210A
:10398000C4F8881001B0BDE8F0830000000000001A
:103990007047000000000000FEE70000000000008B
:1039A00070B586B044F2E0400025C5F602000595EA
:1039B000CDE90355CDE901550168002441F08001AE
:1039C00001600168C5F6020401F0800100910099D0
:1039D000016841F0010101600168002201F001016C
:1039E00000910099016841F00201016001684FF403
:1039F000046601F0020100910099016841F008019C
:103A00000160016801F0080100910099016841F02E
:103A10001001016000684FF4046100F01000009094
:103A200000982046FDF77CFA01200490CDE90205BC
:103A300001A920460196FDF79FF906B070BD000070
:103A400080B588B040F2700040F20042C2F20040FF
:103A500000210791C4F20002CDE905110291026034
:103A600041F63F72C0E901214FF6FF728161C0E962
:103A70000321FEF7A5FF08B1FCF75AFD4FF4805073
:103A8000049040F2700004A9C2F20040FEF7F8FF73
:103A900008B1FCF74DFD00200190039040F270004A
:103AA000C2F2004001A9FEF723FF08B1FCF740FD78
:103AB00008B080BD0000000080B588B040F2BC00B6
:103AC00040F60002C2F2004000210791C4F2000259
:103AD000CDE905110291026041F63F72C0E9012172
:103AE0004FF6FF728161C0E90321FEF769FF08B15B
:103AF000FCF71EFD4FF48050049040F2BC0004A976
:103B0000C2F20040FEF7BCFF08B1FCF711FD002037
:103B10000190039040F2BC00C2F2004001A9FEF700
:103B2000E7FE08B1FCF704FD08B080BD000000000E
:103B300080B540F29C1044F60041C2F20040C4F24D
:103B400000010C2201604FF4E13141600021C0E925
:103B500002110161C0E90521C0E90711C0E909119D
:103B6000FFF7AAFC08B1FCF7E3FC40F29C1000212F
:103B7000C2F20040FFF7F0F808B1FCF7D9FC40F2C0
:103B80009C100021C2F20040FFF79EF808B1FCF73C
:103B9000CFFC40F29C10C2F20040FFF771F8002801
:103BA00008BF80BDBDE88040FCF7C2BC000000003B
:103BB00080B540F2302045F20001C2F20040C4F26C
:103BC00000010C2201604FF4E13141600021C0E9A5
:103BD00002110161C0E90521C0E90711C0E909111D
:103BE000FFF76AFC08B1FCF7A3FC40F2302000218B
:103BF000C2F20040FFF7B0F808B1FCF799FC40F2C0
:103C000030200021C2F20040FFF75EF808B1FCF757
:103C10008FFC40F23020C2F20040FFF731F800285C
:103C200008BF80BDBDE88040FCF782BC00000000FA
:103C300080B540F2C42047F60041C2F20040C4F211
:103C400000010C2201604FF4E13141600021C0E924
:103C500002110161C0E90521C0E90711C0E909119C
:103C6000FFF72AFC08B1FCF763FC40F2C4200021F6
:103C7000C2F20040FFF770F808B1FCF759FC40F2BF
:103C8000C4200021C2F20040FFF71EF808B1FCF783
:103C90004FFC40F2C420C2F20040FEF7F1FF0028C2
:103CA00008BF80BDBDE88040FCF742BC00000000BA
:103CB00080B540F2081044F20041C2F20040C4F264
:103CC00000010C2201604FF4E13141600021C0E9A4
:103CD00002110161C0E90521C0E90711C0E909111C
:103CE000FFF7EAFB08B1FCF723FC40F208100021C3
:103CF000C2F20040FFF730F808B1FCF719FC40F2BF
:103D000008100021C2F20040FEF7DEFF08B1FCF708
:103D10000FFC40F20810C2F20040FEF7B1FF00288D
:103D200008BF80BDBDE88040FCF702BC0000000079
:103D3000FEE7000000000000FEE7000000000000B9
:103D40007047000000000000F0B581B044F22C473D
:103D5000C5F6020757F8042C02F00302032A03D128
:103D6000012001B0F0BD00BF054657F82C0C0C46F1
:103D700020F0806047F82C0CFDF7E2F8064600BF03
:103D800057F82C0C000105D5FDF7DAF8801B022846
:103D9000F6D964E057F8040CEE6895E80E0020F4BC
:103DA0007C30012C40EA0130A2F101016FF35F2168
:103DB0004FF47E4202EB432247F8040C92B24FF0DC
:103DC000FE4302EB01004FF4FE012A6901EB0641BC
:103DD00001F4FE0103EB0262084402F0FE410844D4
:103DE000F8603868696920F0C00040EA0100386076
:103DF0003868A96920F0200040EA0100386038687E
:103E00004FF6F87120F0100038603869EA6920EA4E
:103E100001004FF4001140EAC2003861386808BF61
:103E20004FF4801140F01000002C386008BF4FF4B0
:103E3000002138680843386057F82C0C40F0806047
:103E400047F82C0CFDF77CF8044600BF57F82C0C03
:103E5000000107D4FDF774F8001B0328F6D30320F4
:103E600001B0F0BD002001B0F0BD00000000000076
:103E7000F0B581B044F22C47C5F6020757F8042C80
:103E800002F00302032A03D1012001B0F0BD00BFFC
:103E9000054657F82C0C0C4620F0805047F82C0CA7
:103EA000FDF74EF8064600BF57F82C0C800005D5EC
:103EB000FDF746F8801B0228F6D964E057F8040C99
:103EC000EE6895E80E0020F07C70012C40EA01506D
:103ED000A2F101016FF35F214FF47E4202EB432216
:103EE00047F8040C92B24FF0FE4302EB01004FF48E
:103EF000FE012A6901EB064101F4FE0103EB0262B7
:103F0000084402F0FE41084478613868696920F489
:103F1000406040EA010038603868A96920F4007008
:103F200040EA0100386038684FF6F87120F480707C
:103F30003860B869EA6920EA01004FF0807140EA10
:103F4000C200B861386808BF4FF4000140F48070C7
:103F5000002C386008BF4FF480013868084338608F
:103F600057F82C0C40F0805047F82C0CFCF7E8FF79
:103F7000044600BF57F82C0C800007D4FCF7E0FF84
:103F8000001B0328F6D3032001B0F0BD002001B0D0
:103F9000F0BD00000000000010B52DED108B82B0C8
:103FA000B2EE0D1B44F6D351C1F2620150FB01F198
:103FB0009FED8B2B8A1102EBD1714FF47A7201FBCA
:103FC000120000EE100AB8EEC00B20EE010B01EE5D
:103FD000101AB8EEC11B21EE021B9FED832B81EE60
:103FE000021B9FED7D2BBDEEC13B80EE022BB6EE9A
:103FF000C10BBDEEC24B13EE100AB6EEC21B14EE9F
:10400000104A12280CDC9FED7E2B32EE408B81EEA5
:10401000080B02F0A1FA04FB04F001EE100A0FE015
:104020009FED732B30EE028B81EE080B02F094FAB9
:1040300004FB04F09FED702B01EE100A32EE400BF2
:10404000B8EE411BA8EE081BB1EEC1AB40F238043C
:10405000C2F200449FED6E1B2AEE0ACBB3EE053B85
:104060003CEE011B9FED6C2B31EE021B2AEE032B65
:104070009FED65BB81EE021B20EE0B0B84ED000B68
:10408000B0EE410B02F068F99FED659BB0EE491B65
:104090009FED652BAAEE4A1B8DED000B81EE021BF6
:1040A000B0EE410B02F058F99FED611B3CEE011B95
:1040B000B3EE0B3B9FED602B31EE021B2AEE032B80
:1040C00020EE0BFB81EE021BB0EE410B02F044F937
:1040D000B3EE00EB9FED502BB0EE4E1B9DED004B71
:1040E000AAEE0A1B84ED04FBB1EEC11BB6EEC1DBE8
:1040F0009FED471B2DEE0D8B38EE011B31EE021BA1
:10410000B3EE052B2DEE022B81EE021B9FED4C2B07
:10411000B0EE423B00EE0B2BB0EE410B04EE0B3B3E
:1041200084ED023B84ED062B02F016F9ADEE4D9BBB
:104130009FED3D1B89EE011B8DED000BB0EE410B99
:1041400002F00AF99FED3A1B38EE011B9FED3A2B66
:1041500031EE021BB3EE0B2B20EE0BFB2DEE022BF0
:1041600081EE021BB0EE410B02F0F6F83DEE0D8B36
:10417000B1EE001BADEE0DEBAAEE4AEB28EE011BF3
:10418000B0EE409B8EEE011BB0EE410B02F0E4F866
:10419000ADEE0DCBBBEE001B2AEE082B3CEE011B57
:1041A00020EE0B8B81EE021BB0EE410B02F0D4F837
:1041B00020EE0B0B9DED001B01EE0B8B09EE0B0BA4
:1041C00084ED088B84ED0AFB84ED0C0B02B0BDEC92
:1041D000108B10BD00BF00BF0000000000007E403B
:1041E0000000000000803340000000000000844018
:1041F00000000000008032C04AD8124DFB21094067
:104200000000000000803240AA9F9622DCA54C40AE
:104210000000000000905B400000000000C866C085
:1042200000000000004872400000000000B871402B
:104230000000000000C866400000000000905BC065
:1042400000000000008056407047000000000000A1
:10425000FCF77EBE00000000B0B59CB044F6180428
:1042600009A84C21C5F60204FCF76EF802200025CF
:10427000CDE90755CDE90555CDE90355CDE9015502
:10428000FCF736FF40F22C400095C5F600000168AF
:1042900021F0010101600068012100F0010000909F
:1042A000206861F38F302060206800F44040009067
:1042B00000982068800409D4206880045CBF2068CE
:1042C0005FEA804002D420688004F2D50120099082
:1042D0004FF480300A9002201490CDE9120018218A
:1042E00015910A21169105210024CDE917100C2003
:1042F000199009A8CDE91A44FEF72AF820B1EFF386
:10430000108072B6FEE700BF3F20019003204FF4FB
:104310008061CDE9020440200494CDE90504CDE993
:10432000071001A80021FDF7CFFD28B1EFF31080A1
:1043300072B600BFFEE700BF1CB0B0BD00000000B9
:104340004EF6885042F2000CCEF20000C5F2002C6E
:10435000016841F470010160DCF8000000F00F001A
:10436000062806D8DCF80000072161F30300CCF82A
:10437000000044F200404EF67F52C5F60200CEF631
:10438000F622016841F0010101600021016103682A
:104390001A400260DCF80020120706D5DCF8002085
:1043A000072363F30302CCF8002040F2002281616E
:1043B000C161C0F20222016282620022C0F2FF12D9
:1043C000C26240F28022C0F2011202634163826342
:1043D000C16302644164026822F48022026041F2F7
:1043E00000020166C5F600421268B1EB527F05D1AA
:1043F00048F208110122C5F200110A60D0F8D41069
:10440000C90448BF7047D0F8D41043F2D20241F437
:104410008051C0F8D41044F20001C5F200210A60B6
:10442000D0F8D41021F48051C0F8D41070470000A7
:1044300040F6FF32C4F200029042026810DCB0F194
:10444000804F1ED040F20043C4F20003984218D0BF
:1044500040F60003C4F20003984212D015E000BFFA
:1044600040F60043C4F2000398420AD040F20043F1
:10447000C4F20103984204D00023C4F2010398421D
:1044800003D122F070024B681A434FF6FF7343F6D4
:10449000FF7CC4F20003C4F2010C984210DD6045B9
:1044A00028DD44F20003C4F2010398422DD044F603
:1044B0000003C4F20103984227D044F2004320E0F5
:1044C00040F2FF73C4F20003984207DCB0F1804F62
:1044D0001BD040F20043C4F2000314E040F6000396
:1044E000C4F20003984210D040F60043C4F2000327
:1044F00009E000BF0023C4F20103984205D040F256
:104500000043C4F20103984203D122F44072CB6805
:104510001A4310B5D1F814E060450B688C68C4628A
:10452000836213DD44F20003C4F20103984218D001
:1045300044F60003C4F20103984212D044F200434F
:10454000C4F2010398420CD00DE000BF0023C4F276
:104550000103984205D040F20043C4F2010398429F
:1045600001D109690163016841F004010160012181
:10457000416122F0800141EA0E01016010BD00009E
:1045800040F29C10C2F20040FEF74EBC000000005A
:1045900040F23020C2F20040FEF746BC00000000AE
:1045A00040F2C420C2F20040FEF73EBC0000000012
:1045B000816A0A070CD4CA0715D18A071ED44A0794
:1045C00027D4CA0630D48A0639D44A0642D454E0E5
:1045D0000268D0F838C0536823F4004343EA0C0360
:1045E0005360CA07E9D00268D0F82CC0536823F49E
:1045F000003343EA0C0353608A07E0D50268D0F821
:1046000030C0536823F4803343EA0C0353604A07F5
:10461000D7D50268D0F834C0536823F4802343EA26
:104620000C035360CA06CED50268D0F83CC093682C
:1046300023F4805343EA0C0393608A06C5D50268CD
:10464000D0F840C0936823F4005343EA0C0393600E
:104650004A0612D50268D0F844C0BCF5801F5368E2
:1046600023F4801343EA0C03536006D1536823F408
:10467000C00C836C43EA0C035360090658BF7047B3
:104680000168C06C4A6822F40022104348607047F9
:10469000B0B582B004460020C4F89000FCF750FC8E
:1046A000216805460A68120737D54FF40011002229
:1046B0006FF07E40009020462B4601F031F958B350
:1046C000206850E8000F216820F0800041E80002D7
:1046D000002A1FBF206850E8000F216820F08000EA
:1046E0001CBF41E80002002A12D0206850E8000FE9
:1046F000216820F0800041E800024AB1206850E8BB
:10470000000F216820F0800041E80002002AD7D184
:104710000320202188226CE02168086840075FD5CB
:104720004FF4800100226FF07E40009020462B461F
:1047300001F0F6F8002853D0206850E8000F2168F7
:1047400020F4907041E80002F2B1206850E8000FB8
:10475000216820F4907041E80002002A1FBF206801
:1047600050E8000F216820F490701CBF41E800025F
:10477000002A09D0206850E8000F216820F49070CA
:1047800041E80002002AD7D1206850E8020F2168D2
:1047900020F0010041E80202002A1FBF206850E813
:1047A000020F216820F001001CBF41E80202002A2C
:1047B00012D0206850E8020F216820F0010041E883
:1047C00002024AB1206850E8020F216820F001007F
:1047D00041E80202002AD7D1032020218C2208E0E0
:1047E0002020C4F88800C4F88C000021702200202A
:1047F000E166A150002184F8841002B0B0BD000031
:10480000806B0021A0F85E10FEF7F6BA00000000F1
:10481000B0F860200168D0F88C30222B40F0A880DE
:10482000496A836D114023F8021B8365B0F85E105E
:104830000139A0F85E10B0F85E10002918BF70476B
:10484000016851E8001F026821F4907142E80013EA
:10485000F3B1016851E8001F026821F4907142E849
:104860000013002B1FBF016851E8001F026821F4EC
:1048700090711CBF42E80013002B09D0016851E879
:10488000001F026821F4907142E80013002BD7D179
:10489000016851E8021F026821F0010142E8021399
:1048A000F3B1016851E8021F026821F0010142E8FA
:1048B0000213002B1FBF016851E8021F026821F09C
:1048C00001011CBF42E80213002B09D0016851E826
:1048D000021F026821F0010142E80213002BD7D128
:1048E0002021C0F88C1000214167016740F600428A
:1048F0000168C5F60002914202D0496809023DD420
:10490000C16E012964D10021C166016851E8001F10
:10491000026821F0100142E80013F3B1016851E888
:10492000001F026821F0100142E80013002B1FBF96
:10493000016851E8001F026821F010011CBF42E825
:104940000013002B09D0016851E8001F026821F014
:10495000100142E80013002BD7D10168CA69D206C2
:1049600001D510220A62B0F85C10FEF7A5B900BFAD
:10497000886940F008008861704700BF016851E80D
:10498000001F026821F0806142E80013002BB7D0BD
:10499000016851E8001F026821F0806142E80013BD
:1049A000002B1FBF016851E8001F026821F08061E1
:1049B0001CBF42E80013002BA2D0016851E8001F81
:1049C000026821F0806142E80013002BD6D197E7FE
:1049D000FEF7E6BE000000002DE9F04F81B004466E
:1049E0000068B4F86050C66901688268D4F88C30F9
:1049F000222B55D1B4F86800002800F0F28001F4B1
:104A0000807802F001074FF000094FF0020B4FF0E1
:104A1000010A03E0B4F85E00002852D0B00640F16D
:104A2000E0802068A16D426A2A4021F8022BA1652E
:104A3000B4F85E100139A4F85E10C6697107E9D0B8
:104A4000F20718BFB8F1000F02D1B2070AD412E082
:104A5000C0F820A0D4F8902042F00102C4F89020C1
:104A6000B20708D53FB1C0F820B0D4F8902042F08A
:104A70000402C4F89020002908D53FB10421016246
:104A8000D4F8900040F00200C4F89000D4F89000F0
:104A90000028BFD02046FEF7AFF9C4F89090B9E7E0
:104AA000816941F00801816101B0BDE8F08F00BF6C
:104AB000206850E8000F216820F4807041E800026F
:104AC000EAB1206850E8000F216820F4807041E8C6
:104AD0000002A2B1206850E8000F216820F4807025
:104AE00041E80002002A1FBF206850E8000F21683B
:104AF00020F480701CBF41E80002002AD8D14FF694
:104B0000FE70CEF6FF70216851E8021F2268014056
:104B100042E80213DBB1216851E8021F226801401C
:104B200042E80213002B1FBF216851E8021F2268D0
:104B300001401CBF42E80213002B08D0216851E855
:104B4000021F2268014042E80213002BDBD1202023
:104B5000C4F88C0000206067206740F600412068A0
:104B6000C5F60001884203D04068000200F19A8037
:104B7000E06E012840F0C2800020E066206850E826
:104B8000000F216820F0100041E80002F2B1206817
:104B900050E8000F216820F0100041E80002002AD0
:104BA0001FBF206850E8000F216820F010001CBFD4
:104BB00041E80002002A09D0206850E8000F21686F
:104BC00020F0100041E80002002AD7D12068C16916
:104BD000C90601D510210162B4F85C102046FEF729
:104BE0006BF8B4F85E00002800F09080B4F868100C
:104BF000884280F08B80206850E8020F216820F006
:104C0000805041E80202F2B1206850E8020F2168AA
:104C100020F0805041E80202002A1FBF206850E8BF
:104C2000020F216820F080501CBF41E80202002AD8
:104C300009D0206850E8020F216820F0805041E838
:104C40000202002AD7D144F61100C0F600006067C6
:104C5000206850E8000F216840F0200041E8000281
:104C6000002A53D0206850E8000F216840F020004F
:104C700041E80002002A1FBF206850E8000F2168A9
:104C800040F020001CBF41E80002002A3ED020680E
:104C900050E8000F216840F0200041E80002002A9F
:104CA000D6D133E0206850E8000F216820F0806002
:104CB00041E80002002A3FF45BAF206850E8000F93
:104CC000216820F0806041E80002002A1FBF2068B0
:104CD00050E8000F216820F080601CBF41E800020E
:104CE000002A3FF445AF206850E8000F216820F00B
:104CF000806041E80002002AD4D139E72046FEF75F
:104D00004FFDB4F85E0000287FF470AF01B0BDE83D
:104D1000F08F000000000000B0F860100268D0F8CA
:104D20008C30222B40F0AA80526A836D114019709A
:104D3000816D01318165B0F85E100139A0F85E1017
:104D4000B0F85E10002918BF7047016851E8001FD5
:104D5000026821F4907142E80013FBB1016851E848
:104D6000001F026821F4907142E80013002B1FBF5E
:104D7000016851E8001F026821F490711CBF42E8ED
:104D80000013002B0AD0016851E8001F026821F4CB
:104D9000907142E80013002BD7D100BF016851E8A1
:104DA000021F026821F0010142E80213F3B1016819
:104DB00051E8021F026821F0010142E80213002BB2
:104DC0001FBF016851E8021F026821F001011CBFEA
:104DD00042E80213002B09D0016851E8021F026863
:104DE00021F0010142E80213002BD7D12021C0F8A5
:104DF0008C1000214167016740F600420168C5F64A
:104E00000002914202D0496809023DD4C16E0129D5
:104E100064D10021C166016851E8001F026821F0D9
:104E2000100142E80013F3B1016851E8001F026865
:104E300021F0100142E80013002B1FBF016851E868
:104E4000001F026821F010011CBF42E80013002B74
:104E500009D0016851E8001F026821F0100142E802
:104E60000013002BD7D10168CA69D20601D51022E0
:104E70000A62B0F85C10FDF71FBF00BF906940F0F8
:104E800008009061704700BF016851E8001F026888
:104E900021F0806142E80013002BB7D0016851E88F
:104EA000001F026821F0806142E80013002B1FBF41
:104EB000016851E8001F026821F080611CBF42E8D0
:104EC0000013002BA2D0016851E8001F026821F0F6
:104ED000806142E80013002BD6D197E7FEF760BC53
:104EE0002DE9F04F81B004460068B4F86050C669FF
:104EF00001688268D4F88C30222B57D1B4F868004E
:104F0000002800F0F48001F4807B02F001074FF0EC
:104F100000084FF0020A4FF0010903E0B4F85E0008
:104F2000002854D0B00640F1E2802068A16D406AAC
:104F300028400870A06D0130A0652068B4F85E10AC
:104F40000139A4F85E10C6697107E7D0F20718BFEF
:104F5000BBF1000F02D1B2070AD412E0C0F82090D2
:104F6000D4F8902042F00102C4F89020B20708D58E
:104F70003FB1C0F820A0D4F8902042F00402C4F859
:104F80009020002908D53FB104210162D4F8900097
:104F900040F00200C4F89000D4F890000028BDD082
:104FA0002046FDF729FFC4F89080B7E7816941F0FA
:104FB0000801816101B0BDE8F08F00BF206850E8B2
:104FC000000F216820F4807041E80002EAB12068F7
:104FD00050E8000F216820F4807041E80002A2B17F
:104FE000206850E8000F216820F4807041E800023A
:104FF000002A1FBF206850E8000F216820F480704D
:105000001CBF41E80002002AD8D14FF6FE70CEF650
:10501000FF70216851E8021F2268014042E8021334
:10502000DBB1216851E8021F2268014042E8021307
:10503000002B1FBF216851E8021F226801401CBFDE
:1050400042E80213002B08D0216851E8021F2268B1
:10505000014042E80213002BDBD12020C4F88C0071
:1050600000206067206740F600412068C5F6000117
:10507000884203D04068000200F19A80E06E012867
:1050800040F0C2800020E066206850E8000F2168F0
:1050900020F0100041E80002F2B1206850E8000F53
:1050A000216820F0100041E80002002A1FBF20689C
:1050B00050E8000F216820F010001CBF41E80002FA
:1050C000002A09D0206850E8000F216820F0100065
:1050D00041E80002002AD7D12068C169C90601D57C
:1050E00010210162B4F85C102046FDF7E5FDB4F82C
:1050F0005E00002800F09080B4F86810884280F0CC
:105100008B80206850E8020F216820F0805041E831
:105110000202F2B1206850E8020F216820F08050AE
:1051200041E80202002A1FBF206850E8020F2168F0
:1051300020F080501CBF41E80202002A09D02068FC
:1051400050E8020F216820F0805041E80202002A56
:10515000D7D144F61950C0F600006067206850E8C7
:10516000000F216840F0200041E80002002A53D0DF
:10517000206850E8000F216840F0200041E800025C
:10518000002A1FBF206850E8000F216840F020006F
:105190001CBF41E80002002A3ED0206850E8000F02
:1051A000216840F0200041E80002002AD6D133E017
:1051B000206850E8000F216820F0806041E800027C
:1051C000002A3FF45BAF206850E8000F216820F010
:1051D000806041E80002002A1FBF206850E8000FED
:1051E000216820F080601CBF41E80002002A3FF4E3
:1051F00045AF206850E8000F216820F0806041E84A
:105200000002002AD4D139E72046FEF7C9FAB4F8E3
:105210005E0000287FF470AF01B0BDE8F08F0000A1
:10522000F0B583B00446006846F6F31640F6004E2B
:1052300022696569D4E902130A43E7690168CCF67B
:10524000FF762A4331401143C5F6000E3943016011
:105250004168704521F4405144F2544C41EA030145
:105260004160A2694FF2FF431CBF216A0A43816873
:10527000C1F2FF131940C5F6020C1143816047F2D9
:10528000FF72C16AC4F2000221F00F01656A904208
:105290004FF0800341EA0501C1621FDD40F6FF7156
:1052A000C4F2010188423BDD704500F0258141F2E6
:1052B0000041C4F20101884205D041F20001C4F26C
:1052C0000101884244D1DCF80010C1F3C202062A71
:1052D0003ED246F66861C0F6000137E044F6FF3181
:1052E000C4F2000188420DDC44F20041C4F2000126
:1052F000884221D044F60001C4F2000188421BD04C
:1053000026E000BF44F60041C4F20001884213D0F9
:1053100045F20001C4F2000188420DD018E000BF40
:1053200047F60001C4F20001884205D047F600416B
:10533000C4F2000188420BD1DCF8001001F0070232
:10534000062A05D246F66E61C0F600018B181B785E
:10535000704540F60010C0F23D0000F05380B7F5F4
:10536000004F40F07B80402B4FF0010100F28F8115
:10537000DFE813F0420038018D018D0140018D01FD
:105380008D018D014C018D018D018D018D018D01EE
:105390008D018D0114018D018D018D018D018D0116
:1053A0008D018D018D018D018D018D018D018D018D
:1053B0008D018D0152018D018D018D018D018D01B8
:1053C0008D018D018D018D018D018D018D018D016D
:1053D0008D018D018D018D018D018D018D018D015D
:1053E0008D018D018D018D018D018D018D018D014D
:1053F0008D018D01300100BFFCF7BAFE002840F09E
:105400000A8140E19A1E01211E2A00F27F80DFE816
:1054100012F01F003E0191003E013E013E01970047
:105420003E013E013E013E013E013E013E01830040
:105430003E013E013E013E013E013E013E013E0174
:105440003E013E013E013E013E013E013E019F0004
:10545000FBF776FE002840F07A8014E1402B4FF0F5
:10546000010100F21481DFE813F04100C1001201D4
:105470001201CB00120112011201F30012011201FC
:1054800012011201120112011201A70012011201F0
:105490001201120112011201120112011201120174
:1054A00012011201120112011201F900120112017E
:1054B0001201120112011201120112011201120154
:1054C0001201120112011201120112011201120144
:1054D0001201120112011201120112011201120134
:1054E00012011201120112011201B900FCF740FE73
:1054F000002840F0B280C6E0DCF8041001F007029A
:10550000062ABFF425AF66A120E700BF402B40F07C
:10551000BE804FF400401BE05CF8540C800649F25A
:105520000000C0F2D03013D55CF8541CC1F3C101A7
:10553000C8400DE06846FBF717FE019838B9A2E0B5
:105540006846FBF7A5FE0198002800F09C80656A7C
:1055500046F684616268C0F6000131F81510B0FBB0
:10556000F1F002EB420188424FF00101C0F08F8060
:105570001303984200F28B80010E0023000210EB0F
:10558000520041F10001FAF7A7FE4FF60052A0F5D4
:105590004071C0F20F02914273D377E05CF8540C73
:1055A000800649F20000C0F2D03035D55CF8541CBA
:1055B000C1F3C101C8402FE05CF8540C800649F2E9
:1055C0000000C0F2D03049D55CF8541CC1F3C101D1
:1055D000C84043E04FF400401EE000BF4FF40040DD
:1055E0003CE000BFFCF7F4FDA8B94CE0FCF7F0FD8F
:1055F00098BB48E06846FBF7B7FD019858B942E010
:105600006846FBF7B1FD019838BB3CE06846FBF704
:105610003FFE0198B8B3656A46F68461C0F60001A2
:1056200031F81510B0FBF1F061684A0802EB400058
:105630004FF6EF72B0FBF1F0A0F11001914225D8C6
:105640004FF6F0710140C0F34200084419E000BF7A
:105650006846FBF71DFE0198A8B1656A46F68461AD
:105660006268C0F6000131F81510B0FBF1F000EBF4
:105670005200B0FBF2F0A0F110014FF6EF72914230
:1056800004D82168C860002101E000BF01214FF06B
:105690000110A0660020C4E91D00084603B0F0BD5B
:1056A000020408102040000081650023A0F85C205F
:1056B000A0F85E208168436771B1B1F1805F07D0C7
:1056C000B1F5805F0ED1016951B940F2FF110AE0D6
:1056D000016919B13F2106E0016909B17F2102E0AA
:1056E000FF2100E00021A0F860100021C0F8901018
:1056F0002221C0F88C10016851E8021FD0F800C0C8
:1057000041F001014CE802130BB3016851E8021F9C
:10571000D0F800C041F001014CE80213002B1FBF7C
:10572000016851E8021FD0F800C041F001011CBF20
:105730004CE80213002B0AD0016851E8021FD0F890
:1057400000C041F001014CE80213002BD3D1416E9F
:10575000B1F1005F03D1B0F868108A4240D281688D
:10576000B1F5805F016907D1002947D044F619518E
:10577000C0F60001416706E044F619520029C0F660
:10578000000242673FD0016851E8001F026841F4FF
:10579000907142E80013002B00F0BE80016851E8D0
:1057A000001F026841F4907142E80013002B1FBFF4
:1057B000016851E8001F026841F490711CBF42E883
:1057C0000013002B00F0A880016851E8001F026858
:1057D00041F4907142E80013002BD4D19CE000BF4B
:1057E0008168B1F5805F016938D1002966D044F63F
:1057F000E161C0F60001416736E000BF44F61101E7
:10580000C0F600014167016851E8001F026841F0DD
:10581000200142E80013002B7ED0016851E8001FF0
:10582000026841F0200142E80013002B1FBF01680D
:1058300051E8001F026841F020011CBF42E800133C
:10584000002B69D0016851E8001F026841F0200177
:1058500042E80013002BD6D15EE000BF44F6E162BF
:10586000C0F60002426779B3016851E8001F026880
:1058700041F4807142E8001333B3016851E8001F1E
:10588000026841F4807142E80013002B1FBF0168D9
:1058900051E8001F026841F480711CBF42E8001308
:1058A000002B11D0016851E8001F026841F480719B
:1058B00042E80013002BD7D106E000BF44F6D9110F
:1058C000C0F60001416700BF016851E8021F02688D
:1058D00041F0805142E80213F3B1016851E8021F20
:1058E000026841F0805142E80213002B1FBF01689B
:1058F00051E8021F026841F080511CBF42E80213C8
:10590000002B09D0016851E8021F026841F0805164
:1059100042E80213002BD7D100207047000000009E
:105920002DE9F041804600680D46C7693940491BA2
:10593000B1FA81F149098A4225D1069C34B3164651
:10594000611C29D1C1692940491BB1FA81F149097A
:105950008E4218D1C1692940491BB1FA81F1490928
:105960008E4201BFC1692940491BB1FA81F104BFD0
:1059700049098E4207D1C1692940491BB1FA81F119
:1059800049098E42DED00020BDE8F081FBF7D8FA4D
:105990000320BDE8F08100BF1F4607E0C069284032
:1059A000401BB0FA80F040098642ECD1FBF7C8FA00
:1059B000C01BA04200F2B680D8F800000168490779
:1059C000ECD5402D18BF802DE8D0C169090700F142
:1059D000AD80C1690905E1D54FF400610162D8F8D5
:1059E000000050E8000FD8F8001020F4907041E853
:1059F000000222B3D8F8000050E8000FD8F80010D9
:105A000020F4907041E80002002A1FBFD8F800007F
:105A100050E8000FD8F8001020F490701CBF41E847
:105A20000002002A0BD0D8F8000050E8000FD8F888
:105A3000001020F4907041E80002002ACFD14FF608
:105A4000FE70CEF6FF70D8F8001051E8021FD8F8AB
:105A50000020014042E802130BB3D8F8001051E8CF
:105A6000021FD8F80020014042E80213002B1FBF9C
:105A7000D8F8001051E8021FD8F8002001401CBFE0
:105A800042E80213002B0AD0D8F8001051E8021F98
:105A9000D8F80020014042E80213002BD3D1D8F8F7
:105AA0006C0001282FD1D8F8000050E8000FD8F87A
:105AB000001020F0100041E8000222B3D8F80000E6
:105AC00050E8000FD8F8001020F0100041E8000264
:105AD000002A1FBFD8F8000050E8000FD8F80010C7
